{
  "contractName": "Leases",
  "abi": [
    {
      "constant": true,
      "inputs": [
        {
          "name": "",
          "type": "address"
        }
      ],
      "name": "ownershipContractCount",
      "outputs": [
        {
          "name": "",
          "type": "uint256"
        }
      ],
      "payable": false,
      "stateMutability": "view",
      "type": "function"
    },
    {
      "constant": true,
      "inputs": [
        {
          "name": "",
          "type": "uint256"
        }
      ],
      "name": "leaseIndexToOwner",
      "outputs": [
        {
          "name": "",
          "type": "address"
        }
      ],
      "payable": false,
      "stateMutability": "view",
      "type": "function"
    },
    {
      "constant": true,
      "inputs": [],
      "name": "leasesCount",
      "outputs": [
        {
          "name": "",
          "type": "uint256"
        }
      ],
      "payable": false,
      "stateMutability": "view",
      "type": "function"
    },
    {
      "constant": true,
      "inputs": [
        {
          "name": "",
          "type": "uint256"
        }
      ],
      "name": "leases",
      "outputs": [
        {
          "name": "landlord",
          "type": "address"
        },
        {
          "name": "tenant",
          "type": "address"
        },
        {
          "name": "litigator",
          "type": "address"
        },
        {
          "name": "physicalAddress",
          "type": "string"
        },
        {
          "name": "hashId",
          "type": "string"
        },
        {
          "name": "state",
          "type": "string"
        },
        {
          "name": "signature",
          "type": "bool"
        },
        {
          "name": "key",
          "type": "uint256"
        },
        {
          "components": [
            {
              "name": "rentPerMonth",
              "type": "uint256"
            },
            {
              "name": "depositToPay",
              "type": "uint256"
            },
            {
              "name": "depositPaid",
              "type": "uint256"
            },
            {
              "name": "totalRentToPay",
              "type": "uint256"
            },
            {
              "name": "rentPaid",
              "type": "uint256"
            },
            {
              "name": "durationInMonth",
              "type": "uint256"
            },
            {
              "name": "balanceToBeWithdrawn",
              "type": "uint256"
            }
          ],
          "name": "leaseDetail",
          "type": "tuple"
        }
      ],
      "payable": false,
      "stateMutability": "view",
      "type": "function"
    },
    {
      "inputs": [],
      "payable": false,
      "stateMutability": "nonpayable",
      "type": "constructor"
    },
    {
      "anonymous": false,
      "inputs": [
        {
          "indexed": true,
          "name": "index",
          "type": "uint256"
        }
      ],
      "name": "leaseCreatedEvent",
      "type": "event"
    },
    {
      "anonymous": false,
      "inputs": [
        {
          "indexed": true,
          "name": "index",
          "type": "uint256"
        }
      ],
      "name": "leaseSignedEvent",
      "type": "event"
    },
    {
      "anonymous": false,
      "inputs": [
        {
          "indexed": true,
          "name": "index",
          "type": "uint256"
        }
      ],
      "name": "depositFullEvent",
      "type": "event"
    },
    {
      "anonymous": false,
      "inputs": [
        {
          "indexed": true,
          "name": "index",
          "type": "uint256"
        }
      ],
      "name": "rentPaidMonth",
      "type": "event"
    },
    {
      "anonymous": false,
      "inputs": [
        {
          "indexed": true,
          "name": "index",
          "type": "uint256"
        }
      ],
      "name": "rentWithdrawn",
      "type": "event"
    },
    {
      "constant": false,
      "inputs": [
        {
          "name": "_tenant",
          "type": "address"
        },
        {
          "name": "_litigator",
          "type": "address"
        },
        {
          "name": "_physicalAddress",
          "type": "string"
        },
        {
          "name": "_hashId",
          "type": "string"
        },
        {
          "name": "_rentPerMonth",
          "type": "uint256"
        },
        {
          "name": "_deposit",
          "type": "uint256"
        },
        {
          "name": "_durationInMonth",
          "type": "uint256"
        }
      ],
      "name": "createLease",
      "outputs": [
        {
          "name": "",
          "type": "bool"
        }
      ],
      "payable": false,
      "stateMutability": "nonpayable",
      "type": "function"
    },
    {
      "constant": false,
      "inputs": [
        {
          "name": "_index",
          "type": "uint256"
        }
      ],
      "name": "signLease",
      "outputs": [
        {
          "name": "",
          "type": "bool"
        }
      ],
      "payable": false,
      "stateMutability": "nonpayable",
      "type": "function"
    },
    {
      "constant": false,
      "inputs": [
        {
          "name": "_index",
          "type": "uint256"
        }
      ],
      "name": "payDeposit",
      "outputs": [
        {
          "name": "",
          "type": "bool"
        }
      ],
      "payable": true,
      "stateMutability": "payable",
      "type": "function"
    },
    {
      "constant": false,
      "inputs": [
        {
          "name": "_index",
          "type": "uint256"
        }
      ],
      "name": "payRent",
      "outputs": [
        {
          "name": "",
          "type": "bool"
        }
      ],
      "payable": true,
      "stateMutability": "payable",
      "type": "function"
    },
    {
      "constant": false,
      "inputs": [
        {
          "name": "_index",
          "type": "uint256"
        }
      ],
      "name": "withdrawRent",
      "outputs": [
        {
          "name": "",
          "type": "bool"
        }
      ],
      "payable": false,
      "stateMutability": "nonpayable",
      "type": "function"
    }
  ],
  "bytecode": "0x608060405234801561001057600080fd5b50611513806100206000396000f300608060405260043610610099576000357c0100000000000000000000000000000000000000000000000000000000900463ffffffff16806321c8dee31461009e57806326dd50be146100f557806328cd3f181461016257806348ae6bc71461019a57806374cdf283146101c55780638927a1061461020a578063953b1b321461043a578063cfc78a121461055f578063d9e8843f146105a4575b600080fd5b3480156100aa57600080fd5b506100df600480360381019080803573ffffffffffffffffffffffffffffffffffffffff1690602001909291905050506105dc565b6040518082815260200191505060405180910390f35b34801561010157600080fd5b50610120600480360381019080803590602001909291905050506105f4565b604051808273ffffffffffffffffffffffffffffffffffffffff1673ffffffffffffffffffffffffffffffffffffffff16815260200191505060405180910390f35b61018060048036038101908080359060200190929190505050610627565b604051808215151515815260200191505060405180910390f35b3480156101a657600080fd5b506101af610793565b6040518082815260200191505060405180910390f35b3480156101d157600080fd5b506101f060048036038101908080359060200190929190505050610799565b604051808215151515815260200191505060405180910390f35b34801561021657600080fd5b506102356004803603810190808035906020019092919050505061090d565b604051808a73ffffffffffffffffffffffffffffffffffffffff1673ffffffffffffffffffffffffffffffffffffffff1681526020018973ffffffffffffffffffffffffffffffffffffffff1673ffffffffffffffffffffffffffffffffffffffff1681526020018873ffffffffffffffffffffffffffffffffffffffff1673ffffffffffffffffffffffffffffffffffffffff1681526020018060200180602001806020018715151515815260200186815260200185815260200184810384528a818151815260200191508051906020019080838360005b8381101561032957808201518184015260208101905061030e565b50505050905090810190601f1680156103565780820380516001836020036101000a031916815260200191505b50848103835289818151815260200191508051906020019080838360005b8381101561038f578082015181840152602081019050610374565b50505050905090810190601f1680156103bc5780820380516001836020036101000a031916815260200191505b50848103825288818151815260200191508051906020019080838360005b838110156103f55780820151818401526020810190506103da565b50505050905090810190601f1680156104225780820380516001836020036101000a031916815260200191505b509c5050505050505050505050505060405180910390f35b34801561044657600080fd5b50610545600480360381019080803573ffffffffffffffffffffffffffffffffffffffff169060200190929190803573ffffffffffffffffffffffffffffffffffffffff169060200190929190803590602001908201803590602001908080601f0160208091040260200160405190810160405280939291908181526020018383808284378201915050505050509192919290803590602001908201803590602001908080601f0160208091040260200160405190810160405280939291908181526020018383808284378201915050505050509192919290803590602001909291908035906020019092919080359060200190929190505050610bf0565b604051808215151515815260200191505060405180910390f35b34801561056b57600080fd5b5061058a60048036038101908080359060200190929190505050610fb1565b604051808215151515815260200191505060405180910390f35b6105c260048036038101908080359060200190929190505050611103565b604051808215151515815260200191505060405180910390f35b60036020528060005260406000206000915090505481565b60026020528060005260406000206000915054906101000a900473ffffffffffffffffffffffffffffffffffffffff1681565b6000808281548110151561063757fe5b90600052602060002090600f020160010160009054906101000a900473ffffffffffffffffffffffffffffffffffffffff1673ffffffffffffffffffffffffffffffffffffffff163373ffffffffffffffffffffffffffffffffffffffff161415156106a257600080fd5b346000838154811015156106b257fe5b90600052602060002090600f0201600801600201600082825401925050819055506040805190810160405280600681526020017f616374697665000000000000000000000000000000000000000000000000000081525060008381548110151561071857fe5b90600052602060002090600f0201600501908051906020019061073c9291906113c2565b5060008281548110151561074c57fe5b90600052602060002090600f0201600701547fb19ca84be9376775e034eadc913e2100d78b78c693ca9105005ba40887b8b39760405160405180910390a260019050919050565b60015481565b600080828154811015156107a957fe5b90600052602060002090600f020160010160009054906101000a900473ffffffffffffffffffffffffffffffffffffffff1673ffffffffffffffffffffffffffffffffffffffff163373ffffffffffffffffffffffffffffffffffffffff1614151561081457600080fd5b600160008381548110151561082557fe5b90600052602060002090600f020160060160006101000a81548160ff0219169083151502179055506040805190810160405280600681526020017f7369676e6564000000000000000000000000000000000000000000000000000081525060008381548110151561089257fe5b90600052602060002090600f020160050190805190602001906108b69291906113c2565b506000828154811015156108c657fe5b90600052602060002090600f0201600701547f9c595fee2c2bce7d195586307fa8dc16ed5ee0dd6c92438d42172b065336767660405160405180910390a260019050919050565b60008181548110151561091c57fe5b90600052602060002090600f02016000915090508060000160009054906101000a900473ffffffffffffffffffffffffffffffffffffffff16908060010160009054906101000a900473ffffffffffffffffffffffffffffffffffffffff16908060020160009054906101000a900473ffffffffffffffffffffffffffffffffffffffff1690806003018054600181600116156101000203166002900480601f016020809104026020016040519081016040528092919081815260200182805460018160011615610100020316600290048015610a3a5780601f10610a0f57610100808354040283529160200191610a3a565b820191906000526020600020905b815481529060010190602001808311610a1d57829003601f168201915b505050505090806004018054600181600116156101000203166002900480601f016020809104026020016040519081016040528092919081815260200182805460018160011615610100020316600290048015610ad85780601f10610aad57610100808354040283529160200191610ad8565b820191906000526020600020905b815481529060010190602001808311610abb57829003601f168201915b505050505090806005018054600181600116156101000203166002900480601f016020809104026020016040519081016040528092919081815260200182805460018160011615610100020316600290048015610b765780601f10610b4b57610100808354040283529160200191610b76565b820191906000526020600020905b815481529060010190602001808311610b5957829003601f168201915b5050505050908060060160009054906101000a900460ff16908060070154908060080160e06040519081016040529081600082015481526020016001820154815260200160028201548152602001600382015481526020016004820154815260200160058201548152602001600682015481525050905089565b600080610120604051908101604052803373ffffffffffffffffffffffffffffffffffffffff1681526020018a73ffffffffffffffffffffffffffffffffffffffff1681526020018973ffffffffffffffffffffffffffffffffffffffff1681526020018881526020018781526020016040805190810160405280600781526020017f63726561746564000000000000000000000000000000000000000000000000008152508152602001600015158152602001600154815260200160e0604051908101604052808881526020018781526020016000815260200186890281526020016000815260200186815260200160008152508152509080600181540180825580915050906001820390600052602060002090600f02016000909192909190915060008201518160000160006101000a81548173ffffffffffffffffffffffffffffffffffffffff021916908373ffffffffffffffffffffffffffffffffffffffff16021790555060208201518160010160006101000a81548173ffffffffffffffffffffffffffffffffffffffff021916908373ffffffffffffffffffffffffffffffffffffffff16021790555060408201518160020160006101000a81548173ffffffffffffffffffffffffffffffffffffffff021916908373ffffffffffffffffffffffffffffffffffffffff1602179055506060820151816003019080519060200190610e04929190611442565b506080820151816004019080519060200190610e21929190611442565b5060a0820151816005019080519060200190610e3e929190611442565b5060c08201518160060160006101000a81548160ff02191690831515021790555060e0820151816007015561010082015181600801600082015181600001556020820151816001015560408201518160020155606082015181600301556080820151816004015560a0820151816005015560c0820151816006015550505050503360026000600154815260200190815260200160002060006101000a81548173ffffffffffffffffffffffffffffffffffffffff021916908373ffffffffffffffffffffffffffffffffffffffff160217905550600360003373ffffffffffffffffffffffffffffffffffffffff1673ffffffffffffffffffffffffffffffffffffffff168152602001908152602001600020600081548092919060010191905055506001547f51a585bc78606abb2cf6171a86d07e1c948488d356c076d0d950f04bde80596460405160405180910390a260016000815480929190600101919050555060019050979650505050505050565b60008082815481101515610fc157fe5b90600052602060002090600f020160000160009054906101000a900473ffffffffffffffffffffffffffffffffffffffff1673ffffffffffffffffffffffffffffffffffffffff163373ffffffffffffffffffffffffffffffffffffffff1614151561102c57600080fd5b60008281548110151561103b57fe5b90600052602060002090600f020160000160009054906101000a900473ffffffffffffffffffffffffffffffffffffffff1673ffffffffffffffffffffffffffffffffffffffff166108fc60008481548110151561109557fe5b90600052602060002090600f0201600801600601549081150290604051600060405180830381858888f193505050501580156110d5573d6000803e3d6000fd5b50600080838154811015156110e657fe5b90600052602060002090600f020160080160060181905550919050565b6000808281548110151561111357fe5b90600052602060002090600f020160010160009054906101000a900473ffffffffffffffffffffffffffffffffffffffff1673ffffffffffffffffffffffffffffffffffffffff163373ffffffffffffffffffffffffffffffffffffffff1614151561117e57600080fd5b3460008381548110151561118e57fe5b90600052602060002090600f020160080160040160008282540192505081905550346000838154811015156111bf57fe5b90600052602060002090600f0201600801600601600082825401925050819055506000828154811015156111ef57fe5b90600052602060002090600f0201600701547f2413f1b3243561b452d05d34030809f36977c795056cfa4b370dbf1d5322fb4b60405160405180910390a260008281548110151561123c57fe5b90600052602060002090600f02016008016003015460008381548110151561126057fe5b90600052602060002090600f0201600801600401541015156113b9576040805190810160405280600881526020017f636f6d706c6574650000000000000000000000000000000000000000000000008152506000838154811015156112c157fe5b90600052602060002090600f020160050190805190602001906112e59291906113c2565b506000828154811015156112f557fe5b90600052602060002090600f020160010160009054906101000a900473ffffffffffffffffffffffffffffffffffffffff1673ffffffffffffffffffffffffffffffffffffffff166108fc60008481548110151561134f57fe5b90600052602060002090600f0201600801600201549081150290604051600060405180830381858888f1935050505015801561138f573d6000803e3d6000fd5b50600080838154811015156113a057fe5b90600052602060002090600f0201600801600201819055505b60019050919050565b828054600181600116156101000203166002900490600052602060002090601f016020900481019282601f1061140357805160ff1916838001178555611431565b82800160010185558215611431579182015b82811115611430578251825591602001919060010190611415565b5b50905061143e91906114c2565b5090565b828054600181600116156101000203166002900490600052602060002090601f016020900481019282601f1061148357805160ff19168380011785556114b1565b828001600101855582156114b1579182015b828111156114b0578251825591602001919060010190611495565b5b5090506114be91906114c2565b5090565b6114e491905b808211156114e05760008160009055506001016114c8565b5090565b905600a165627a7a72305820294b178569b32f1217a33f1ae7d3c003b7dab207dbed8287dc7f9f5e2d677dbb0029",
  "source": "pragma solidity ^0.4.2;\r\n\r\ncontract Leases {\r\n\t\r\n\tstruct Lease {\r\n    \taddress  landlord; \r\n    \taddress  tenant;\r\n    \taddress  litigator;\r\n    \tstring  physicalAddress;\r\n    \tstring  hashId;\r\n    \tstring  state;\r\n    \tbool  signature; \r\n    \tuint key;\r\n    \tLeaseDetail leaseDetail;\r\n    }\r\n\r\n    struct LeaseDetail {\r\n    \tuint rentPerMonth;\r\n    \tuint depositToPay;\r\n    \tuint depositPaid;\r\n    \tuint totalRentToPay;\r\n    \tuint rentPaid;\r\n    \tuint durationInMonth;\r\n    \tuint balanceToBeWithdrawn;\r\n    }\r\n    \r\n    Lease[] public leases; \r\n    \r\n    uint public leasesCount;\r\n    \r\n    mapping (uint => address) public leaseIndexToOwner;\r\n    mapping (address => uint) public ownershipContractCount;\r\n\r\n    event leaseCreatedEvent (\r\n        uint indexed index\r\n    );\r\n\r\n    event leaseSignedEvent (\r\n    \tuint indexed index\r\n    );\r\n\r\n    event depositFullEvent (\r\n    \tuint indexed index \r\n    );\r\n\r\n    event rentPaidMonth (\r\n    \tuint indexed index\r\n    );\t\r\n\r\n    event rentWithdrawn (\r\n    \tuint indexed index\r\n    );\r\n\r\n\tconstructor() public {\r\n\t}\r\n\r\n\tfunction createLease(\r\n\t\t\t\t\t\taddress _tenant, \r\n\t\t\t\t\t\taddress _litigator, \r\n\t\t\t\t\t\tstring _physicalAddress, \r\n\t\t\t\t\t\tstring _hashId, \r\n\t\t\t\t\t\tuint _rentPerMonth, \r\n\t\t\t\t\t\tuint _deposit,\r\n\t\t\t\t\t\tuint _durationInMonth) \r\n\t\tpublic \r\n\t\treturns(bool) \r\n\t\t{\r\n\t\t\tleases.push(Lease(\r\n\t\t\t\tmsg.sender,  \r\n\t\t\t\t_tenant, \r\n\t\t\t\t_litigator, \r\n\t\t\t\t_physicalAddress, \r\n\t\t\t\t_hashId, \r\n\t\t\t\t\"created\", \r\n\t\t\t\tfalse,\r\n\t\t\t\tleasesCount, \r\n\t\t\t\tLeaseDetail(_rentPerMonth, \r\n\t\t\t\t_deposit,\r\n\t\t\t\t0,\r\n\t\t\t\t_rentPerMonth*_durationInMonth,\r\n\t\t\t\t0,\r\n\t\t\t\t_durationInMonth,\r\n\t\t\t\t0)));\r\n\r\n\t\t\tleaseIndexToOwner[leasesCount] = msg.sender;\r\n\t\t\townershipContractCount[msg.sender]++;\r\n\t\t\temit leaseCreatedEvent(leasesCount);\r\n\t\t\tleasesCount++;\r\n\t\t\treturn true;\r\n\t\t}\r\n\r\n\tfunction signLease(uint _index) \r\n\t\tpublic\r\n\t\treturns(bool)\r\n\t\t{\r\n\t\t\trequire(msg.sender == leases[_index].tenant);\r\n\t\t\tleases[_index].signature = true;\r\n\t\t\tleases[_index].state=\"signed\";\r\n\t\t\temit leaseSignedEvent(leases[_index].key);\r\n\t\t\treturn true;\r\n\t\t}\r\n\r\n\tfunction payDeposit(uint _index)\r\n\t\tpublic \r\n\t\tpayable\r\n\t\treturns(bool)\r\n\t\t{\r\n\t\t\trequire(msg.sender == leases[_index].tenant);\r\n\t\t\tleases[_index].leaseDetail.depositPaid += msg.value;\r\n\t\t\tleases[_index].state = \"active\";\r\n\t\t\temit depositFullEvent(leases[_index].key);\r\n\t\t\treturn true;\r\n\t\t}\r\n\r\n\tfunction payRent(uint _index)\r\n\t\tpublic\r\n\t\tpayable\r\n\t\treturns(bool)\r\n\t\t{\r\n\t\t\trequire(msg.sender == leases[_index].tenant);\r\n\t\t\tleases[_index].leaseDetail.rentPaid += msg.value;\r\n\t\t\tleases[_index].leaseDetail.balanceToBeWithdrawn += msg.value;\r\n\t\t\temit rentPaidMonth(leases[_index].key);\r\n\t\t\tif (leases[_index].leaseDetail.rentPaid >= leases[_index].leaseDetail.totalRentToPay) {\r\n\t\t\t\tleases[_index].state = \"complete\";\r\n\t\t\t\tleases[_index].tenant.transfer(leases[_index].leaseDetail.depositPaid);\r\n\t\t\t\tleases[_index].leaseDetail.depositPaid = 0;\r\n\t\t\t}\r\n\t\t\treturn true;\r\n\t\t}\r\n\r\n\tfunction withdrawRent(uint _index)\r\n\t\tpublic\r\n\t\treturns(bool)\r\n\t\t{\r\n\t\t\trequire(msg.sender == leases[_index].landlord);\r\n\t\t\taddress(leases[_index].landlord).transfer(leases[_index].leaseDetail.balanceToBeWithdrawn);\r\n\t\t\tleases[_index].leaseDetail.balanceToBeWithdrawn = 0;\r\n\t\t}\r\n \r\n}",
  "sourcePath": "C:\\Users\\adri1\\Desktop\\Perso\\Blockspace\\Blockspace-Tenancy\\contracts\\Leases.sol",
  "compiler": {
    "name": "solc",
    "version": "0.4.24+commit.e67f0147.Emscripten.clang"
  },
  "schemaVersion": "2.0.1",
  "updatedAt": "2018-08-15T16:35:35.077Z"
}