{
  "contractName": "Lease",
  "abi": [
    {
      "constant": true,
      "inputs": [],
      "name": "totalRentToPay",
      "outputs": [
        {
          "name": "",
          "type": "uint256"
        }
      ],
      "payable": false,
      "stateMutability": "view",
      "type": "function"
    },
    {
      "constant": true,
      "inputs": [],
      "name": "litigator",
      "outputs": [
        {
          "name": "",
          "type": "address"
        }
      ],
      "payable": false,
      "stateMutability": "view",
      "type": "function"
    },
    {
      "constant": true,
      "inputs": [],
      "name": "leasesFactoryAddress",
      "outputs": [
        {
          "name": "",
          "type": "address"
        }
      ],
      "payable": false,
      "stateMutability": "view",
      "type": "function"
    },
    {
      "constant": true,
      "inputs": [],
      "name": "index",
      "outputs": [
        {
          "name": "",
          "type": "address"
        }
      ],
      "payable": false,
      "stateMutability": "view",
      "type": "function"
    },
    {
      "constant": true,
      "inputs": [],
      "name": "durationInMonth",
      "outputs": [
        {
          "name": "",
          "type": "uint256"
        }
      ],
      "payable": false,
      "stateMutability": "view",
      "type": "function"
    },
    {
      "constant": true,
      "inputs": [],
      "name": "physicalAddress",
      "outputs": [
        {
          "name": "",
          "type": "string"
        }
      ],
      "payable": false,
      "stateMutability": "view",
      "type": "function"
    },
    {
      "constant": true,
      "inputs": [],
      "name": "signature",
      "outputs": [
        {
          "name": "",
          "type": "bool"
        }
      ],
      "payable": false,
      "stateMutability": "view",
      "type": "function"
    },
    {
      "constant": true,
      "inputs": [],
      "name": "rentPaid",
      "outputs": [
        {
          "name": "",
          "type": "uint256"
        }
      ],
      "payable": false,
      "stateMutability": "view",
      "type": "function"
    },
    {
      "constant": true,
      "inputs": [],
      "name": "tenant",
      "outputs": [
        {
          "name": "",
          "type": "address"
        }
      ],
      "payable": false,
      "stateMutability": "view",
      "type": "function"
    },
    {
      "constant": true,
      "inputs": [],
      "name": "state",
      "outputs": [
        {
          "name": "",
          "type": "string"
        }
      ],
      "payable": false,
      "stateMutability": "view",
      "type": "function"
    },
    {
      "constant": true,
      "inputs": [],
      "name": "hashId",
      "outputs": [
        {
          "name": "",
          "type": "string"
        }
      ],
      "payable": false,
      "stateMutability": "view",
      "type": "function"
    },
    {
      "constant": true,
      "inputs": [],
      "name": "leasesFactory",
      "outputs": [
        {
          "name": "",
          "type": "address"
        }
      ],
      "payable": false,
      "stateMutability": "view",
      "type": "function"
    },
    {
      "constant": true,
      "inputs": [],
      "name": "landlord",
      "outputs": [
        {
          "name": "",
          "type": "address"
        }
      ],
      "payable": false,
      "stateMutability": "view",
      "type": "function"
    },
    {
      "constant": true,
      "inputs": [],
      "name": "depositToPay",
      "outputs": [
        {
          "name": "",
          "type": "uint256"
        }
      ],
      "payable": false,
      "stateMutability": "view",
      "type": "function"
    },
    {
      "constant": true,
      "inputs": [],
      "name": "depositPaid",
      "outputs": [
        {
          "name": "",
          "type": "uint256"
        }
      ],
      "payable": false,
      "stateMutability": "view",
      "type": "function"
    },
    {
      "constant": true,
      "inputs": [],
      "name": "balanceToBeWithdrawn",
      "outputs": [
        {
          "name": "",
          "type": "uint256"
        }
      ],
      "payable": false,
      "stateMutability": "view",
      "type": "function"
    },
    {
      "constant": true,
      "inputs": [],
      "name": "rentPerMonth",
      "outputs": [
        {
          "name": "",
          "type": "uint256"
        }
      ],
      "payable": false,
      "stateMutability": "view",
      "type": "function"
    },
    {
      "inputs": [
        {
          "name": "_landlord",
          "type": "address"
        },
        {
          "name": "_tenant",
          "type": "address"
        },
        {
          "name": "_litigator",
          "type": "address"
        },
        {
          "name": "_physicalAddress",
          "type": "string"
        },
        {
          "name": "_rentPerMonth",
          "type": "uint256"
        },
        {
          "name": "_deposit",
          "type": "uint256"
        }
      ],
      "payable": false,
      "stateMutability": "nonpayable",
      "type": "constructor"
    },
    {
      "constant": false,
      "inputs": [],
      "name": "signLease",
      "outputs": [
        {
          "name": "",
          "type": "bool"
        }
      ],
      "payable": false,
      "stateMutability": "nonpayable",
      "type": "function"
    },
    {
      "constant": false,
      "inputs": [],
      "name": "payDeposit",
      "outputs": [
        {
          "name": "",
          "type": "bool"
        }
      ],
      "payable": true,
      "stateMutability": "payable",
      "type": "function"
    },
    {
      "constant": false,
      "inputs": [],
      "name": "payRent",
      "outputs": [
        {
          "name": "",
          "type": "bool"
        }
      ],
      "payable": true,
      "stateMutability": "payable",
      "type": "function"
    },
    {
      "constant": false,
      "inputs": [],
      "name": "withdrawRent",
      "outputs": [
        {
          "name": "",
          "type": "bool"
        }
      ],
      "payable": false,
      "stateMutability": "nonpayable",
      "type": "function"
    }
  ],
  "bytecode": "0x60806040523480156200001157600080fd5b506040516200151938038062001519833981018060405281019080805190602001909291908051906020019092919080519060200190929190805182019291906020018051906020019092919080519060200190929190505050336000806101000a81548173ffffffffffffffffffffffffffffffffffffffff021916908373ffffffffffffffffffffffffffffffffffffffff1602179055506000809054906101000a900473ffffffffffffffffffffffffffffffffffffffff16600160006101000a81548173ffffffffffffffffffffffffffffffffffffffff021916908373ffffffffffffffffffffffffffffffffffffffff16021790555085600260006101000a81548173ffffffffffffffffffffffffffffffffffffffff021916908373ffffffffffffffffffffffffffffffffffffffff16021790555084600360006101000a81548173ffffffffffffffffffffffffffffffffffffffff021916908373ffffffffffffffffffffffffffffffffffffffff16021790555083600460006101000a81548173ffffffffffffffffffffffffffffffffffffffff021916908373ffffffffffffffffffffffffffffffffffffffff1602179055508260059080519060200190620001e89291906200031d565b5030600860016101000a81548173ffffffffffffffffffffffffffffffffffffffff021916908373ffffffffffffffffffffffffffffffffffffffff1602179055508160098190555080600a819055506040805190810160405280600781526020017f637265617465640000000000000000000000000000000000000000000000000081525060079080519060200190620002859291906200031d565b506001600e819055506000600860006101000a81548160ff0219169083151502179055506040805190810160405280600481526020017f746573740000000000000000000000000000000000000000000000000000000081525060069080519060200190620002f69291906200031d565b5081600102600c819055506000600d819055506000600f81905550505050505050620003cc565b828054600181600116156101000203166002900490600052602060002090601f016020900481019282601f106200036057805160ff191683800117855562000391565b8280016001018555821562000391579182015b828111156200039057825182559160200191906001019062000373565b5b509050620003a09190620003a4565b5090565b620003c991905b80821115620003c5576000816000905550600101620003ab565b5090565b90565b61113d80620003dc6000396000f30060806040526004361061011d576000357c0100000000000000000000000000000000000000000000000000000000900463ffffffff1680631222cc841461012257806314d3b1431461014d57806326573e3e146101a45780632986c0e5146101fb5780632b7d98b61461025257806340868fff1461027d57806351ff48471461030d5780635c274b861461033c5780636322182e1461035e5780637f0255661461038d578063a709c4fe146103b8578063adf07791146103da578063c19d93fb14610431578063c59bcee8146104c1578063ceabe35d14610551578063d666379514610580578063dc1997ea146105d7578063eb21972d1461062e578063ef3ab33014610659578063faff094414610684578063fbed1c1c146106af575b600080fd5b34801561012e57600080fd5b506101376106da565b6040518082815260200191505060405180910390f35b34801561015957600080fd5b506101626106e0565b604051808273ffffffffffffffffffffffffffffffffffffffff1673ffffffffffffffffffffffffffffffffffffffff16815260200191505060405180910390f35b3480156101b057600080fd5b506101b9610706565b604051808273ffffffffffffffffffffffffffffffffffffffff1673ffffffffffffffffffffffffffffffffffffffff16815260200191505060405180910390f35b34801561020757600080fd5b5061021061072b565b604051808273ffffffffffffffffffffffffffffffffffffffff1673ffffffffffffffffffffffffffffffffffffffff16815260200191505060405180910390f35b34801561025e57600080fd5b50610267610751565b6040518082815260200191505060405180910390f35b34801561028957600080fd5b50610292610757565b6040518080602001828103825283818151815260200191508051906020019080838360005b838110156102d25780820151818401526020810190506102b7565b50505050905090810190601f1680156102ff5780820380516001836020036101000a031916815260200191505b509250505060405180910390f35b34801561031957600080fd5b506103226107f5565b604051808215151515815260200191505060405180910390f35b610344610808565b604051808215151515815260200191505060405180910390f35b34801561036a57600080fd5b506103736109c0565b604051808215151515815260200191505060405180910390f35b34801561039957600080fd5b506103a2610a94565b6040518082815260200191505060405180910390f35b6103c0610a9a565b604051808215151515815260200191505060405180910390f35b3480156103e657600080fd5b506103ef610ce3565b604051808273ffffffffffffffffffffffffffffffffffffffff1673ffffffffffffffffffffffffffffffffffffffff16815260200191505060405180910390f35b34801561043d57600080fd5b50610446610d09565b6040518080602001828103825283818151815260200191508051906020019080838360005b8381101561048657808201518184015260208101905061046b565b50505050905090810190601f1680156104b35780820380516001836020036101000a031916815260200191505b509250505060405180910390f35b3480156104cd57600080fd5b506104d6610da7565b6040518080602001828103825283818151815260200191508051906020019080838360005b838110156105165780820151818401526020810190506104fb565b50505050905090810190601f1680156105435780820380516001836020036101000a031916815260200191505b509250505060405180910390f35b34801561055d57600080fd5b50610566610e45565b604051808215151515815260200191505060405180910390f35b34801561058c57600080fd5b50610595611008565b604051808273ffffffffffffffffffffffffffffffffffffffff1673ffffffffffffffffffffffffffffffffffffffff16815260200191505060405180910390f35b3480156105e357600080fd5b506105ec61102e565b604051808273ffffffffffffffffffffffffffffffffffffffff1673ffffffffffffffffffffffffffffffffffffffff16815260200191505060405180910390f35b34801561063a57600080fd5b50610643611054565b6040518082815260200191505060405180910390f35b34801561066557600080fd5b5061066e61105a565b6040518082815260200191505060405180910390f35b34801561069057600080fd5b50610699611060565b6040518082815260200191505060405180910390f35b3480156106bb57600080fd5b506106c4611066565b6040518082815260200191505060405180910390f35b600c5481565b600460009054906101000a900473ffffffffffffffffffffffffffffffffffffffff1681565b6000809054906101000a900473ffffffffffffffffffffffffffffffffffffffff1681565b600860019054906101000a900473ffffffffffffffffffffffffffffffffffffffff1681565b600e5481565b60058054600181600116156101000203166002900480601f0160208091040260200160405190810160405280929190818152602001828054600181600116156101000203166002900480156107ed5780601f106107c2576101008083540402835291602001916107ed565b820191906000526020600020905b8154815290600101906020018083116107d057829003601f168201915b505050505081565b600860009054906101000a900460ff1681565b6000600360009054906101000a900473ffffffffffffffffffffffffffffffffffffffff1673ffffffffffffffffffffffffffffffffffffffff163373ffffffffffffffffffffffffffffffffffffffff1614151561086657600080fd5b34600b600082825401925050819055506040805190810160405280600681526020017f6163746976650000000000000000000000000000000000000000000000000000815250600790805190602001906108c192919061106c565b50600160009054906101000a900473ffffffffffffffffffffffffffffffffffffffff1673ffffffffffffffffffffffffffffffffffffffff166376e5ef97600860019054906101000a900473ffffffffffffffffffffffffffffffffffffffff166040518263ffffffff167c0100000000000000000000000000000000000000000000000000000000028152600401808273ffffffffffffffffffffffffffffffffffffffff1673ffffffffffffffffffffffffffffffffffffffff168152602001915050600060405180830381600087803b1580156109a157600080fd5b505af11580156109b5573d6000803e3d6000fd5b505050506001905090565b6000600260009054906101000a900473ffffffffffffffffffffffffffffffffffffffff1673ffffffffffffffffffffffffffffffffffffffff163373ffffffffffffffffffffffffffffffffffffffff16141515610a1e57600080fd5b600260009054906101000a900473ffffffffffffffffffffffffffffffffffffffff1673ffffffffffffffffffffffffffffffffffffffff166108fc600f549081150290604051600060405180830381858888f19350505050158015610a88573d6000803e3d6000fd5b506000600f8190555090565b600d5481565b6000600360009054906101000a900473ffffffffffffffffffffffffffffffffffffffff1673ffffffffffffffffffffffffffffffffffffffff163373ffffffffffffffffffffffffffffffffffffffff16141515610af857600080fd5b34600d6000828254019250508190555034600f60008282540192505081905550600160009054906101000a900473ffffffffffffffffffffffffffffffffffffffff1673ffffffffffffffffffffffffffffffffffffffff1663b20f26aa600860019054906101000a900473ffffffffffffffffffffffffffffffffffffffff166040518263ffffffff167c0100000000000000000000000000000000000000000000000000000000028152600401808273ffffffffffffffffffffffffffffffffffffffff1673ffffffffffffffffffffffffffffffffffffffff168152602001915050600060405180830381600087803b158015610bf757600080fd5b505af1158015610c0b573d6000803e3d6000fd5b50505050600c54600d54101515610cdc576040805190810160405280600881526020017f636f6d706c65746500000000000000000000000000000000000000000000000081525060079080519060200190610c6792919061106c565b50600360009054906101000a900473ffffffffffffffffffffffffffffffffffffffff1673ffffffffffffffffffffffffffffffffffffffff166108fc600b549081150290604051600060405180830381858888f19350505050158015610cd2573d6000803e3d6000fd5b506000600b819055505b6001905090565b600360009054906101000a900473ffffffffffffffffffffffffffffffffffffffff1681565b60078054600181600116156101000203166002900480601f016020809104026020016040519081016040528092919081815260200182805460018160011615610100020316600290048015610d9f5780601f10610d7457610100808354040283529160200191610d9f565b820191906000526020600020905b815481529060010190602001808311610d8257829003601f168201915b505050505081565b60068054600181600116156101000203166002900480601f016020809104026020016040519081016040528092919081815260200182805460018160011615610100020316600290048015610e3d5780601f10610e1257610100808354040283529160200191610e3d565b820191906000526020600020905b815481529060010190602001808311610e2057829003601f168201915b505050505081565b6000600360009054906101000a900473ffffffffffffffffffffffffffffffffffffffff1673ffffffffffffffffffffffffffffffffffffffff163373ffffffffffffffffffffffffffffffffffffffff16141515610ea357600080fd5b6001600860006101000a81548160ff0219169083151502179055506040805190810160405280600681526020017f7369676e6564000000000000000000000000000000000000000000000000000081525060079080519060200190610f0992919061106c565b50600160009054906101000a900473ffffffffffffffffffffffffffffffffffffffff1673ffffffffffffffffffffffffffffffffffffffff166377bf2512600860019054906101000a900473ffffffffffffffffffffffffffffffffffffffff166040518263ffffffff167c0100000000000000000000000000000000000000000000000000000000028152600401808273ffffffffffffffffffffffffffffffffffffffff1673ffffffffffffffffffffffffffffffffffffffff168152602001915050600060405180830381600087803b158015610fe957600080fd5b505af1158015610ffd573d6000803e3d6000fd5b505050506001905090565b600160009054906101000a900473ffffffffffffffffffffffffffffffffffffffff1681565b600260009054906101000a900473ffffffffffffffffffffffffffffffffffffffff1681565b600a5481565b600b5481565b600f5481565b60095481565b828054600181600116156101000203166002900490600052602060002090601f016020900481019282601f106110ad57805160ff19168380011785556110db565b828001600101855582156110db579182015b828111156110da5782518255916020019190600101906110bf565b5b5090506110e891906110ec565b5090565b61110e91905b8082111561110a5760008160009055506001016110f2565b5090565b905600a165627a7a72305820e172e1116c0fe6402d3de91dc3900a548763423fd0a1bdc5bc28e692dd95c2ca0029",
  "source": "pragma solidity ^0.4.2;\r\nimport './LeasesFactory.sol';\r\n\r\ncontract Lease {\r\n\r\n\taddress public leasesFactoryAddress;\r\n\tLeasesFactory public leasesFactory ;\r\n\r\n   \taddress public landlord; \r\n   \taddress public tenant;\r\n   \taddress public litigator;\r\n   \tstring public physicalAddress;\r\n   \tstring public hashId;\r\n   \tstring public state;\r\n   \tbool public signature; \r\n   \taddress public index;\r\n   \tuint public rentPerMonth;\r\n   \tuint public depositToPay;\r\n   \tuint public depositPaid;\r\n   \tuint public totalRentToPay;\r\n   \tuint public rentPaid;\r\n   \tuint public durationInMonth;\r\n   \tuint public balanceToBeWithdrawn;\r\n\r\n   \tconstructor(\r\n   \t    address _landlord,\r\n   \t    address _tenant, \r\n\t\taddress _litigator, \r\n\t\tstring _physicalAddress, \r\n\t\tuint _rentPerMonth, \r\n\t\tuint _deposit\r\n   \t    ) \r\n   \t    public \r\n   \t    { \r\n   \t    \r\n   \t    leasesFactoryAddress = msg.sender;\r\n   \t    leasesFactory = LeasesFactory(leasesFactoryAddress);\r\n   \t    \r\n   \t    landlord = _landlord;\r\n   \t    tenant = _tenant;\r\n\t\tlitigator = _litigator; \r\n\t\tphysicalAddress = _physicalAddress;\r\n\t\tindex = address(this);\r\n\t\trentPerMonth = _rentPerMonth;\r\n\t\tdepositToPay = _deposit;\r\n\t\t\r\n\t\tstate=\"created\";\r\n\t\tdurationInMonth = 1;\r\n   \t    signature = false;\r\n   \t    hashId = 'test';\r\n   \t    totalRentToPay = 1*_rentPerMonth;\r\n   \t    rentPaid=0;\r\n   \t    balanceToBeWithdrawn=0;\r\n   \t}  \r\n    \r\n    function signLease() \r\n\t\tpublic\r\n\t\treturns(bool)\r\n\t\t{\r\n\t\t\trequire(msg.sender == tenant);\r\n\t\t\tsignature = true;\r\n\t\t\tstate=\"signed\";\r\n\t\t\tleasesFactory.leaseSignedEventCall(index);\r\n\t\t\treturn true;\r\n\t\t}\r\n\r\n\tfunction payDeposit()\r\n\t\tpublic \r\n\t\tpayable\r\n\t\treturns(bool)\r\n\t\t{\r\n\t\t\trequire(msg.sender == tenant);\r\n\t\t\tdepositPaid += msg.value;\r\n\t\t\tstate = \"active\";\r\n\t\t\tleasesFactory.depositFullEventCall(index);\r\n\t\t\treturn true;\r\n\t\t}\r\n\r\n\tfunction payRent()\r\n\t\tpublic\r\n\t\tpayable\r\n\t\treturns(bool)\r\n\t\t{\r\n\t\t\trequire(msg.sender == tenant);\r\n\t\t\trentPaid += msg.value;\r\n\t\t    balanceToBeWithdrawn += msg.value;\r\n\t\t\tleasesFactory.rentPaidMonthCall(index);\r\n\t\t\tif (rentPaid >= totalRentToPay) {\r\n\t\t\t\tstate = \"complete\";\r\n\t\t\t\ttenant.transfer(depositPaid);\r\n\t\t\t\tdepositPaid = 0;\r\n\t\t\t}\r\n\t\t\treturn true;\r\n\t\t}\r\n\r\n\tfunction withdrawRent()\r\n\t\tpublic\r\n\t\treturns(bool)\r\n\t\t{\r\n\t\t\trequire(msg.sender == landlord);\r\n\t\t\taddress(landlord).transfer(balanceToBeWithdrawn);\r\n\t\t\tbalanceToBeWithdrawn = 0;\r\n\t\t}\r\n\r\n}",
  "sourcePath": "C:\\Users\\adri1\\Desktop\\Perso\\Blockspace\\Blockspace-Tenancy-Factory\\contracts\\Lease.sol",
  "compiler": {
    "name": "solc",
    "version": "0.4.24+commit.e67f0147.Emscripten.clang"
  },
  "schemaVersion": "2.0.1",
  "updatedAt": "2018-10-15T07:36:17.884Z"
}