{
  "contractName": "POT",
  "abi": [
    {
      "constant": true,
      "inputs": [],
      "name": "sellOrdersCount",
      "outputs": [
        {
          "name": "",
          "type": "uint256"
        }
      ],
      "payable": false,
      "stateMutability": "view",
      "type": "function"
    },
    {
      "constant": true,
      "inputs": [
        {
          "name": "",
          "type": "uint256"
        }
      ],
      "name": "buyOrders",
      "outputs": [
        {
          "name": "id",
          "type": "uint256"
        },
        {
          "name": "owner",
          "type": "address"
        },
        {
          "name": "amount",
          "type": "uint256"
        },
        {
          "name": "maxPrice",
          "type": "uint256"
        }
      ],
      "payable": false,
      "stateMutability": "view",
      "type": "function"
    },
    {
      "constant": true,
      "inputs": [
        {
          "name": "",
          "type": "uint256"
        }
      ],
      "name": "sellOrders",
      "outputs": [
        {
          "name": "id",
          "type": "uint256"
        },
        {
          "name": "owner",
          "type": "address"
        },
        {
          "name": "amount",
          "type": "uint256"
        },
        {
          "name": "minrice",
          "type": "uint256"
        }
      ],
      "payable": false,
      "stateMutability": "view",
      "type": "function"
    },
    {
      "constant": true,
      "inputs": [],
      "name": "totalPOTsellAmount",
      "outputs": [
        {
          "name": "",
          "type": "uint256"
        }
      ],
      "payable": false,
      "stateMutability": "view",
      "type": "function"
    },
    {
      "constant": true,
      "inputs": [
        {
          "name": "",
          "type": "address"
        }
      ],
      "name": "balancesOfPOT",
      "outputs": [
        {
          "name": "",
          "type": "uint256"
        }
      ],
      "payable": false,
      "stateMutability": "view",
      "type": "function"
    },
    {
      "constant": true,
      "inputs": [],
      "name": "totalPOTbuyAmount",
      "outputs": [
        {
          "name": "",
          "type": "uint256"
        }
      ],
      "payable": false,
      "stateMutability": "view",
      "type": "function"
    },
    {
      "constant": true,
      "inputs": [],
      "name": "buyOrdersCount",
      "outputs": [
        {
          "name": "",
          "type": "uint256"
        }
      ],
      "payable": false,
      "stateMutability": "view",
      "type": "function"
    },
    {
      "inputs": [],
      "payable": false,
      "stateMutability": "nonpayable",
      "type": "constructor"
    },
    {
      "anonymous": false,
      "inputs": [
        {
          "indexed": false,
          "name": "buyOrderAddress",
          "type": "address"
        },
        {
          "indexed": false,
          "name": "amount",
          "type": "uint256"
        },
        {
          "indexed": false,
          "name": "maxPrice",
          "type": "uint256"
        }
      ],
      "name": "buyOrderEvent",
      "type": "event"
    },
    {
      "anonymous": false,
      "inputs": [
        {
          "indexed": false,
          "name": "sellOrderAddress",
          "type": "address"
        },
        {
          "indexed": false,
          "name": "amount",
          "type": "uint256"
        },
        {
          "indexed": false,
          "name": "minPrice",
          "type": "uint256"
        }
      ],
      "name": "sellOrderEvent",
      "type": "event"
    },
    {
      "constant": false,
      "inputs": [
        {
          "name": "_amountPOT",
          "type": "uint256"
        },
        {
          "name": "_maxPrice",
          "type": "uint256"
        }
      ],
      "name": "placeOrderBuy",
      "outputs": [
        {
          "name": "",
          "type": "bool"
        }
      ],
      "payable": true,
      "stateMutability": "payable",
      "type": "function"
    },
    {
      "constant": false,
      "inputs": [
        {
          "name": "_amountPOT",
          "type": "uint256"
        },
        {
          "name": "_minPrice",
          "type": "uint256"
        }
      ],
      "name": "placeOrderSell",
      "outputs": [
        {
          "name": "",
          "type": "bool"
        }
      ],
      "payable": true,
      "stateMutability": "payable",
      "type": "function"
    },
    {
      "constant": false,
      "inputs": [],
      "name": "executeOrders",
      "outputs": [
        {
          "name": "",
          "type": "uint256"
        }
      ],
      "payable": false,
      "stateMutability": "nonpayable",
      "type": "function"
    },
    {
      "constant": true,
      "inputs": [],
      "name": "whatIsActualPrice",
      "outputs": [
        {
          "name": "",
          "type": "uint256"
        }
      ],
      "payable": false,
      "stateMutability": "view",
      "type": "function"
    },
    {
      "constant": true,
      "inputs": [],
      "name": "balanceContract",
      "outputs": [
        {
          "name": "",
          "type": "uint256"
        }
      ],
      "payable": false,
      "stateMutability": "view",
      "type": "function"
    }
  ],
  "bytecode": "0x6080604052600160075534801561001557600080fd5b5060646000803373ffffffffffffffffffffffffffffffffffffffff1673ffffffffffffffffffffffffffffffffffffffff16815260200190815260200160002081905550601e6000807314723a09acff6d2a60dcdf7aa4aff308fddc160c73ffffffffffffffffffffffffffffffffffffffff1673ffffffffffffffffffffffffffffffffffffffff168152602001908152602001600020819055506032600080734b0897b0513fdc7c541b6d9d7e929c4e5364d2db73ffffffffffffffffffffffffffffffffffffffff1673ffffffffffffffffffffffffffffffffffffffff16815260200190815260200160002081905550603c60008073583031d1113ad414f02576bd6afabfb30214022573ffffffffffffffffffffffffffffffffffffffff1673ffffffffffffffffffffffffffffffffffffffff16815260200190815260200160002081905550600060058190555060006006819055506107bd806101816000396000f3006080604052600436106100ba576000357c0100000000000000000000000000000000000000000000000000000000900463ffffffff1680631a4a769f146100bf5780632ad4530a14610101578063322a5e5f1461012c57806335cea288146101575780634a8393f3146101d957806351aba7131461025b5780635de8477a146102865780636485325e146102dd5780638bec0f0a1461031f57806398a79bf11461034a5780639fbd5d9314610375578063a8ce42c2146103a0575b600080fd5b6100e760048036038101908080359060200190929190803590602001909291905050506103cb565b604051808215151515815260200191505060405180910390f35b34801561010d57600080fd5b5061011661051e565b6040518082815260200191505060405180910390f35b34801561013857600080fd5b50610141610524565b6040518082815260200191505060405180910390f35b34801561016357600080fd5b5061018260048036038101908080359060200190929190505050610548565b604051808581526020018473ffffffffffffffffffffffffffffffffffffffff1673ffffffffffffffffffffffffffffffffffffffff16815260200183815260200182815260200194505050505060405180910390f35b3480156101e557600080fd5b5061020460048036038101908080359060200190929190505050610598565b604051808581526020018473ffffffffffffffffffffffffffffffffffffffff1673ffffffffffffffffffffffffffffffffffffffff16815260200183815260200182815260200194505050505060405180910390f35b34801561026757600080fd5b506102706105e8565b6040518082815260200191505060405180910390f35b34801561029257600080fd5b506102c7600480360381019080803573ffffffffffffffffffffffffffffffffffffffff1690602001909291905050506105ee565b6040518082815260200191505060405180910390f35b6103056004803603810190808035906020019092919080359060200190929190505050610606565b604051808215151515815260200191505060405180910390f35b34801561032b57600080fd5b50610334610759565b6040518082815260200191505060405180910390f35b34801561035657600080fd5b5061035f610763565b6040518082815260200191505060405180910390f35b34801561038157600080fd5b5061038a610785565b6040518082815260200191505060405180910390f35b3480156103ac57600080fd5b506103b561078b565b6040518082815260200191505060405180910390f35b600060036000815480929190600101919050555060806040519081016040528060035481526020013373ffffffffffffffffffffffffffffffffffffffff168152602001848152602001838152506001600060035481526020019081526020016000206000820151816000015560208201518160010160006101000a81548173ffffffffffffffffffffffffffffffffffffffff021916908373ffffffffffffffffffffffffffffffffffffffff160217905550604082015181600201556060820151816003015590505082600554016005819055507f2552afefacf9c9b91e0ca4bf0f7abe7724079f2ff9dc752e10055b6c2f0a8a42338484604051808473ffffffffffffffffffffffffffffffffffffffff1673ffffffffffffffffffffffffffffffffffffffff168152602001838152602001828152602001935050505060405180910390a16001905092915050565b60045481565b6000803090508073ffffffffffffffffffffffffffffffffffffffff163191505090565b60016020528060005260406000206000915090508060000154908060010160009054906101000a900473ffffffffffffffffffffffffffffffffffffffff16908060020154908060030154905084565b60026020528060005260406000206000915090508060000154908060010160009054906101000a900473ffffffffffffffffffffffffffffffffffffffff16908060020154908060030154905084565b60065481565b60006020528060005260406000206000915090505481565b600060046000815480929190600101919050555060806040519081016040528060045481526020013373ffffffffffffffffffffffffffffffffffffffff168152602001848152602001838152506002600060045481526020019081526020016000206000820151816000015560208201518160010160006101000a81548173ffffffffffffffffffffffffffffffffffffffff021916908373ffffffffffffffffffffffffffffffffffffffff160217905550604082015181600201556060820151816003015590505082600654016006819055507f23e49a6972f31ee2a8790c6f1b4bc4df4b21753f7b01a6b23c99704985127d46338484604051808473ffffffffffffffffffffffffffffffffffffffff1673ffffffffffffffffffffffffffffffffffffffff168152602001838152602001828152602001935050505060405180910390a16001905092915050565b6000600754905090565b6000600360078190555060006005819055506000600681905550600754905090565b60055481565b600354815600a165627a7a723058209e51f5db806b7bde90901cf6496c33126b9bb26a3c5c21036600226b9d06a5de0029",
  "source": "pragma solidity ^0.4.21;\r\n\r\ncontract POT {\r\n\r\n    struct BuyOrder {\r\n        uint id;\r\n        address owner;\r\n        uint amount;\r\n        uint maxPrice; \r\n    }\r\n\r\n    struct SellOrder {\r\n        uint id;\r\n        address owner;\r\n        uint amount;\r\n        uint minrice; \r\n    }\r\n    \r\n    mapping (address => uint256) public balancesOfPOT;\r\n    \r\n    mapping (uint => BuyOrder) public buyOrders;\r\n\r\n    mapping (uint => SellOrder) public sellOrders;\r\n\r\n\r\n    uint public buyOrdersCount;\r\n    uint public sellOrdersCount;\r\n    \r\n    uint public totalPOTbuyAmount;\r\n    uint public totalPOTsellAmount;\r\n    \r\n    uint actualPrice=1;\r\n    \r\n    event buyOrderEvent (\r\n        address buyOrderAddress, uint amount, uint maxPrice\r\n    );\r\n\r\n    event sellOrderEvent (\r\n        address sellOrderAddress, uint amount, uint minPrice\r\n    );\r\n    \r\n    constructor () public {\r\n        balancesOfPOT[msg.sender] = 100;\r\n        balancesOfPOT[0x14723A09ACff6D2A60DcdF7aA4AFf308FDDC160C]=30;\r\n        balancesOfPOT[0x4B0897b0513fdC7C541B6d9D7E929C4e5364D2dB]=50;\r\n        balancesOfPOT[0x583031D1113aD414F02576BD6afaBfb302140225]=60;\r\n        totalPOTbuyAmount=0;\r\n        totalPOTsellAmount=0;\r\n\r\n    }\r\n \r\n \r\n    function placeOrderBuy(uint _amountPOT, uint _maxPrice ) public payable returns(bool){\r\n        //escrow the amount of money, but could approve this contract for allowance of the max money to pay\r\n        buyOrdersCount++;\r\n        buyOrders[buyOrdersCount] = BuyOrder(buyOrdersCount, msg.sender, _amountPOT, _maxPrice);\r\n\r\n        totalPOTbuyAmount= totalPOTbuyAmount + _amountPOT;\r\n        \r\n        emit buyOrderEvent(msg.sender, _amountPOT, _maxPrice);\r\n        return true;\r\n    }\r\n    \r\n    function placeOrderSell(uint _amountPOT, uint _minPrice ) public payable returns(bool) {\r\n        sellOrdersCount++;\r\n        sellOrders[sellOrdersCount] = SellOrder(sellOrdersCount, msg.sender, _amountPOT, _minPrice);\r\n\r\n        totalPOTsellAmount = totalPOTsellAmount + _amountPOT;\r\n        \r\n        emit sellOrderEvent(msg.sender, _amountPOT, _minPrice);\r\n        return true;\r\n    }\r\n    \r\n    function executeOrders() public returns(uint) {\r\n        \r\n        \r\n        //mechanism to find actual price -> not interesting as it is pure algo \r\n        actualPrice = 3;\r\n        \r\n        totalPOTbuyAmount=0;\r\n        totalPOTsellAmount=0;\r\n        return actualPrice;\r\n    }\r\n \r\n    function whatIsActualPrice() external view returns(uint) {\r\n        return actualPrice;\r\n    }\r\n    \r\n    function balanceContract() public view returns(uint256) {\r\n        address thisContract = this;\r\n        return thisContract.balance;\r\n    }\r\n\r\n}",
  "sourcePath": "C:\\Users\\adri1\\Desktop\\Perso\\Blockspace\\Blockspace-Tenancy\\contracts\\POT.sol",
  "compiler": {
    "name": "solc",
    "version": "0.4.24+commit.e67f0147.Emscripten.clang"
  },
  "schemaVersion": "2.0.1",
  "updatedAt": "2018-08-13T16:15:07.012Z"
}