{
  "contractName": "SmartLease",
  "abi": [
    {
      "constant": true,
      "inputs": [
        {
          "name": "",
          "type": "address"
        },
        {
          "name": "",
          "type": "uint256"
        }
      ],
      "name": "leasesOwners",
      "outputs": [
        {
          "name": "",
          "type": "address"
        }
      ],
      "payable": false,
      "stateMutability": "view",
      "type": "function"
    },
    {
      "inputs": [],
      "payable": false,
      "stateMutability": "nonpayable",
      "type": "constructor"
    },
    {
      "constant": false,
      "inputs": [
        {
          "name": "_landlord",
          "type": "address"
        },
        {
          "name": "_tenant",
          "type": "address"
        },
        {
          "name": "_litigator",
          "type": "address"
        },
        {
          "name": "_physicalAddress",
          "type": "string"
        },
        {
          "name": "_hashId",
          "type": "string"
        }
      ],
      "name": "createLease",
      "outputs": [
        {
          "name": "",
          "type": "bool"
        }
      ],
      "payable": false,
      "stateMutability": "nonpayable",
      "type": "function"
    }
  ],
  "bytecode": "0x608060405234801561001057600080fd5b50610289806100206000396000f30060806040526004361061004c576000357c0100000000000000000000000000000000000000000000000000000000900463ffffffff1680638d0b73e014610051578063d41b84e1146100de575b600080fd5b34801561005d57600080fd5b5061009c600480360381019080803573ffffffffffffffffffffffffffffffffffffffff16906020019092919080359060200190929190505050610205565b604051808273ffffffffffffffffffffffffffffffffffffffff1673ffffffffffffffffffffffffffffffffffffffff16815260200191505060405180910390f35b3480156100ea57600080fd5b506101eb600480360381019080803573ffffffffffffffffffffffffffffffffffffffff169060200190929190803573ffffffffffffffffffffffffffffffffffffffff169060200190929190803573ffffffffffffffffffffffffffffffffffffffff169060200190929190803590602001908201803590602001908080601f0160208091040260200160405190810160405280939291908181526020018383808284378201915050505050509192919290803590602001908201803590602001908080601f0160208091040260200160405190810160405280939291908181526020018383808284378201915050505050509192919290505050610252565b604051808215151515815260200191505060405180910390f35b60006020528160005260406000208181548110151561022057fe5b906000526020600020016000915091509054906101000a900473ffffffffffffffffffffffffffffffffffffffff1681565b6000959450505050505600a165627a7a72305820159126d6e6d12b88547e0d27995c45f4ff8d74e841ea45082b4182578837b6f00029",
  "source": "pragma solidity ^0.4.2;\r\nimport \"./Lease.sol\";\r\n\r\ncontract SmartLease {\r\n\r\n\tmapping (address => Lease[]) public leasesOwners;\r\n\r\n\tconstructor() public {\r\n\r\n\t}\r\n\r\n\tfunction createLease(address _landlord,  address _tenant, address _litigator, string _physicalAddress, string _hashId) \r\n\t\tpublic \r\n\t\treturns(bool) \r\n\t\t{\r\n\t\t\t//leasesOwners[msg.sender] = new Lease(_landlord,  _tenant, _litigator, _physicalAddress, _hashId);\r\n\t\t}\r\n\r\n}\r\n",
  "sourcePath": "C:\\Users\\adri1\\Desktop\\Perso\\Blockspace\\Blockspace-Tenancy\\contracts\\SmartLease.sol",
  "compiler": {
    "name": "solc",
    "version": "0.4.24+commit.e67f0147.Emscripten.clang"
  },
  "schemaVersion": "2.0.1",
  "updatedAt": "2018-08-13T16:15:07.008Z"
}